S01700005472726166696320636F6E74726F6C2E7372656321
S11300000C942A000C9422010C943C000C943C00A7
S11300100C943C000C943C000C943C000C943C006C
S11300200C943C000C943C000C943C000C943C005C
S11300300C943C000C943C000C943C000C943C004C
S11300400C943C000C943C000C943C000C943C003C
S11300500C943C0011241FBECFE5D8E0DEBFCDBF19
S113006020E0A0E6B0E001C01D92A136B207E1F79E
S11300700E942A020C945F060C94000060E081E464
S11300800E94F30161E081E40E94F30162E081E4F3
S11300900E94F30160E082E40E94F30161E082E4E3
S11300A00E94F30162E082E40E94F3010E94EC01E9
S11300B00895CF93DF93882321F0813009F042C063
S11300C023C0CAE0D0E061E081E40E941D0261E047
S11300D082E40E941D0224EF31E040E050E060E041
S11300E070E080E090E00E944D01809160008130DA
S11300F011F0219741F761E081E40E940F0261E071
S113010082E40E940F021EC0CAE0D0E061E081E4F4
S11301100E941D0261E082E40E941D0224EF31E08E
S113012040E050E060E070E080E090E00E944D012B
S1130130219761F761E081E40E940F0261E082E4AB
S11301400E940F02DF91CF91089581E00E9459002F
S113015062E081E40E940F0260E081E40E940102F7
S113016060E082E40E940F0262E082E40E940102E5
S113017028E833E140E050E060E070E080E090E0A7
S11301800E944D0181E00E94590062E082E40E94D5
S11301900F0260E082E40E94010260E081E40E94B8
S11301A00F020895C1E01092600062E081E40E94B1
S11301B0010260E082E40E94010228E833E140E0A9
S11301C050E060E070E080E090E00E944D0190918A
S11301D06000913019F40E94A500E5CFC09360003F
S11301E08C2F0E94590062E081E40E940F0260E0BB
S11301F082E40E940F0260E081E40E94010262E056
S113020082E40E94010228E833E140E050E060E02B
S113021070E080E090E00E944D011092600080E068
S11302200E94590080916000813019F40E94A50059
S1130230BACF60E081E40E940F0262E082E40E948F
S11302400F02B1CF1F920F920FB60F9211242F936A
S11302503F934F935F936F937F938F939F93AF934A
S1130260BF93EF93FF9380916000811105C081E0FB
S1130270809360000E94CA03FF91EF91BF91AF91F8
S11302809F918F917F916F915F914F913F912F91AA
S11302900F900FBE0F901F901895CF92DF92EF92A0
S11302A0FF920F931F93CF93DF930E945C056B0122
S11302B07C012FE632E143E853E40E944D04882395
S11302C0CCF4A70196016FE672E183E893E40E94FF
S11302D0D5032FE632E143E85FE30E9451040E9414
S11302E0BE04022F132FD42FC52ED62EE72EF82EA0
S11302F0C92F58C02FE632E143E853E4C701B601E1
S11303000E944D04882309F445C02FE632E143E8F6
S113031053E4C701B6010E9451040E943A040E94AA
S1130320F304C62F0E94C4032FE632E143E85FE3DF
S1130330C701B6010E9451046B017C016C2F70E06F
S113034080E090E00E9421059B01AC01C701B60149
S11303500E9451049B01AC0160E070E080E893E4EA
S11303600E94D5030E94BE040E94D0030E94C603CB
S1130370C11127C00CC00E94D203811103C083B7EE
S11303808111F9CF0E94CC03F394FC16A0F30E94D0
S1130390CA0319C000E010E0D0E0C12CD12CE12C3C
S11303A0F12CC0E00E94C403202F312F4D2F5C2D6F
S11303B06D2D7E2D8F2D9C2F0E94D0030E94C6038D
S11303C0C1E0F12CD8CFDF91CF911F910F91FF9015
S11303D0EF90DF90CF9008950E94BA030E94BC036F
S11303E00E94C003089541E00E943102882319F05D
S11303F0833019F404C080E0089582E0089581E018
S1130400089541E00E94D002882319F0833019F442
S113041004C080E0089582E0089581E0089540E0FA
S11304200E94D002882319F0833019F404C080E0BC
S1130430089582E0089581E008950E946F0388235F
S113044019F0833019F404C080E0089582E008951F
S113045081E008950E943E000E94D20080E090E076
S11304600895683008F090C0823469F120F4813432
S113047009F08CC007C0833409F446C0843409F001
S113048085C062C041110FC02AB381E090E0AC0185
S113049002C0440F551F6A95E2F7BA0160956223C2
S11304A06ABB80E00895413009F072C04AB321E08C
S11304B030E0C90102C0880F991F6A95E2F7842BC6
S11304C08ABB80E0089541110FC027B381E090E01A
S11304D0AC0102C0440F551F6A95E2F7BA0160955A
S11304E0622367BB80E00895413009F053C047B3ED
S11304F021E030E0C90102C0880F991F6A95E2F734
S1130500842B87BB80E0089541110FC024B381E0A0
S113051090E0AC0102C0440F551F6A95E2F7BA019E
S11305206095622364BB80E008954130A9F544B32B
S113053021E030E0C90102C0880F991F6A95E2F7F3
S1130540842B84BB80E0089541110FC021B381E066
S113055090E0AC0102C0440F551F6A95E2F7BA015E
S11305606095622361BB80E008954130B9F441B3E2
S113057021E030E0C90102C0880F991F6A95E2F7B3
S1130580842B81BB80E0089584E0089583E008957E
S113059081E0089581E0089581E0089581E008955F
S11305A0683008F090C0823469F120F4813409F095
S11305B08CC007C0833409F446C0843409F085C074
S11305C062C041110FC02BB381E090E0AC0102C0C6
S11305D0440F551F6A95E2F7BA01609562236BBB1D
S11305E080E00895413009F072C04BB321E030E05F
S11305F0C90102C0880F991F6A95E2F7842B8BBB4F
S113060080E0089541110FC028B381E090E0AC016F
S113061002C0440F551F6A95E2F7BA016095622340
S113062068BB80E00895413009F053C048B321E02D
S113063030E0C90102C0880F991F6A95E2F7842B44
S113064088BB80E0089541110FC025B381E090E09C
S1130650AC0102C0440F551F6A95E2F7BA016095D8
S1130660622365BB80E008954130A9F545B321E0DC
S113067030E0C90102C0880F991F6A95E2F7842B04
S113068085BB80E0089541110FC022B381E090E062
S1130690AC0102C0440F551F6A95E2F7BA01609598
S11306A0622362BB80E008954130B9F442B321E093
S11306B030E0C90102C0880F991F6A95E2F7842BC4
S11306C082BB80E0089584E0089583E0089582E089
S11306D0089582E0089582E0089582E008956830E4
S11306E008F044C08234C1F020F4813409F040C0E1
S11306F005C08334F9F08434D9F52AC02BB381E0E2
S113070090E0AC0102C0440F551F6A95E2F7BA01AC
S113071062276BBB80E0089528B381E090E0AC01D0
S113072002C0440F551F6A95E2F7BA01622768BBFD
S113073080E0089525B381E090E0AC0102C0440F4D
S1130740551F6A95E2F7BA01622765BB80E00895F8
S113075022B381E090E0AC0102C0440F551F6A95BA
S1130760E2F7BA01622762BB80E0089584E008954D
S113077083E008957894089585B7816085BF0895CE
S11307808BB780648BBF089513BE089583B78560CB
S113079083BF089513BE089588B7816088BF089504
S11307A022BF089588B7817008955058BB27AA279F
S11307B00ED034C225D230F02AD220F031F49F3F3B
S11307C011F41EF40AC20EF4E095E7FBD7C1E92F39
S11307D036D280F3BA17620773078407950718F0B7
S11307E071F49EF565C20EF4E0950B2EBA2FA02D80
S11307F00B01B90190010C01CA01A0011124FF27CA
S1130800591B99F0593F50F4503E68F11A16F040C4
S1130810A22F232F342F4427585FF3CF46953795C3
S11308202795A795F0405395C9F77EF41F16BA0B88
S1130830620B730B840BBAF09150A1F0FF0FBB1F36
S1130840661F771F881FC2F70EC0BA0F621F731F7F
S1130850841F48F4879577956795B795F7959E3FDC
S113086008F0B3CF9395880F08F09927EE0F97956A
S11308708795089506D280F09F3740F491110EF4C5
S113088018C260E070E080E89FE3089526F01B162C
S1130890611D711D811D78C192C14CD108F481E0A4
S11308A008950CD0BBC1B3D140F0AAD130F021F4EB
S11308B05F3F19F063C15111FCC18FC1C0D198F3DE
S11308C09923C9F35523B1F3951B550BBB27AA27CD
S11308D062177307840738F09F5F5F4F220F331F3F
S11308E0441FAA1FA9F333D00E2E3AF0E0E830D00B
S11308F091505040E695001CCAF729D0FE2F27D00E
S1130900660F771F881FBB1F261737074807AB07DB
S1130910B0E809F0BB0B802DBF01FF2793585F4F50
S11309202AF09E3F510568F029C1C3C15F3FECF333
S1130930983EDCF3869577956795B795F7959F5F15
S1130940C9F7880F911D9695879597F90895E1E069
S1130950660F771F881FBB1F621773078407BA07C8
S113096020F0621B730B840BBA0BEE1F88F7E09523
S11309700895BEE304D008F490E80895BFE3222765
S11309803327A90164D158F19F5740F1B91738F1C1
S1130990BFE3B91B9927B8503AF4660F771F881F35
S11309A0991FB395D2F316C0B8504AF0232F342FB1
S11309B0452F562F672F782F8827B850BAF7B85F7E
S11309C049F0869577956795579547953795279577
S11309D0BA95B9F70EF404D188940895889460E028
S11309E070E0CB01089533D188F09F5790F0B92F70
S11309F09927B751A0F0D1F0660F771F881F991F70
S1130A001AF0BA95C9F712C0B13081F051D1B1E0F2
S1130A1008954EC1672F782F8827B85F39F0B93F02
S1130A20CCF3869577956795B395D9F73EF4909571
S1130A308095709561957F4F8F4F9F4F0895E894EF
S1130A4009C097FB3EF490958095709561957F4F12
S1130A508F4F9F4F9923A9F0F92F96E9BB279395C0
S1130A60F695879577956795B795F111F8CFFAF4D0
S1130A70BB0F11F460FF1BC06F5F7F4F8F4F9F4F01
S1130A8016C0882311F096E911C0772321F09EE85F
S1130A90872F762F05C0662371F096E8862F70E0C5
S1130AA060E02AF09A95660F771F881FDAF7880F9F
S1130AB09695879597F90895E894F92F96EBFF2377
S1130AC081F0121613061406440B9395F695879538
S1130AD07795679557954040FF23B9F71BC0992731
S1130AE00895882351F49850D2F7872B762F652FD9
S1130AF0542F432F322F20E0B1F31216130614069D
S1130B00440B88233AF09A95440F551F661F771FAC
S1130B10881FCAF755234AF4440F551F11F460FF88
S1130B2004C06F5F7F4F8F4F9F4F880F96958795B7
S1130B3097F90895990F0008550FAA0BE0E8FEEF06
S1130B4016161706E807F907C0F012161306E4078D
S1130B50F50798F0621B730B840B950B39F40A2686
S1130B6061F0232B242B252B21F408950A2609F464
S1130B70A140A6958FEF811D811D089597F99F6768
S1130B8080E870E060E00895882371F4772321F011
S1130B909850872B762F07C0662311F499270DC030
S1130BA09051862B70E060E02AF09A95660F771FCB
S1130BB0881FDAF7880F9695879597F908959F3FD0
S1130BC031F0915020F4879577956795B795880F04
S1130BD0911D9695879597F908959FEF80EC089558
S1130BE09095809570956095509540953095219598
S1130BF03F4F4F4F5F4F6F4F7F4F8F4F9F4F089522
S1130C0000240A94161617061806090608950024E7
S1130C100A9412161306140605060895092E039461
S1130C20000C11F4882352F0BB0F40F4BF2B11F4D5
S1130C3060FF04C06F5F7F4F8F4F9F4F089557FD34
S1130C409058440F551F59F05F3F71F04795880F36
S1130C5097FB991F61F09F3F79F0879508951216CD
S1130C6013061406551FF2CF4695F1DF08C0161679
S1130C7017061806991FF1CF86957105610508942A
S1130C800895E5DFA0F0BEE7B91788F4BB279F38C5
S1130C9060F41616B11D672F782F8827985FF7CF59
S1130CA0869577956795B11D93959639C8F3089500
S1130CB0E894BB2766277727CB0197F90895F89422
S1050CC0FFCF60
S9030000FC
